:020000040000FA
:1000000048080120950200009D0200009F020000A8
:10001000A1020000A3020000A502000000000000F1
:100020000000000000000000000000005168000017
:10003000A902000000000000A1530000A96F000009
:100040002131000031310000413100005131000008
:1000500061310000713100008131000091310000F8
:10006000A1310000B1310000C1310000D1310000E8
:10007000E1310000F13100000132000011320000D6
:1000800021320000313200004132000051320000C4
:1000900061320000713200008132000091320000B4
:1000A000A1320000B1320000C1320000D1320000A4
:1000B000E1320000F1320000013300001133000092
:1000C0002133000035330000493300005D33000068
:1000D000713300008533000099330000AD33000018
:1000E000C1330000D5330000E9330000FD330000C8
:1000F0001134000025340000393400004D34000074
:100100006134000075340000893400009D34000023
:10011000B1340000C5340000D9340000ED340000D3
:100120000135000015350000293500003D3500007F
:100130005135000065350000793500008D3500002F
:10014000A1350000B5350000C9350000DD350000DF
:10015000F135000005360000193600002D3600008C
:100160004136000055360000693600007D3600003B
:1001700091360000A5360000B9360000CD360000EB
:10018000E1360000F5360000093700001D37000099
:100190003137000045370000593700006D37000047
:1001A0008137000095370000A9370000BD370000F7
:1001B000D1370000E5370000F93700000D380000A6
:1001C0002138000035380000493800005D38000053
:1001D000713800008538000099380000AD38000003
:1001E000C1380000D5380000E9380000FD380000B3
:1001F0001139000025390000393900004D3900005F
:100200006139000075390000893900009D3900000E
:10021000B1390000C5390000D9390000ED390000BE
:10022000013A0000153A0000293A00003D3A00006A
:10023000513A0000653A0000793A00008D3A00001A
:10024000AF020000AF020000AF020000AF020000EA
:10025000AF020000AF020000AF020000AF020000DA
:10026000AF020000AF020000AF020000AF020000CA
:10027000AF020000AF020000AF020000AF020000BA
:10028000DFF80CD001F0B4F9004800477D4E0100C2
:10029000480801200648804706480047FEE7FEE779
:1002A000FEE7FEE7FEE7FEE7FEE7FEE7FEE7FEE726
:1002B000A9710000810200002DE9F05F05460020D1
:1002C00092469B4688460646814640241BE02846C7
:1002D00041464746224600F0D6FB53465A46C01ACE
:1002E000914110D311461846224600F0BDFB2D1A4D
:1002F00067EB01084F4622460120002100F0B4FBC5
:1003000017EB00094E41201EA4F10104DFDC484632
:1003100031462A464346BDE8F09F0000004870473A
:100320001C27030010B50446FFF7F8FF0068005DC6
:1003300000F0010010BD10B5431A934209D2831892
:10034000881803E010F8011D03F8011D521EF9D2B0
:1003500010BD40EA01039B0703D009E008C9121F42
:1003600008C0042AFAD203E011F8013B00F8013B6F
:10037000521EF9D210BDD2B201E000F8012B491E85
:10038000FBD270470022F6E710B513460A46044632
:100390001946FFF7F0FF204610BD421E12F8013F3C
:1003A000002BFBD111F8013B02F8013B002BF9D1E6
:1003B000704730B505462A460B4612F8010B13F874
:1003C000014B08B1A042F8D01CB1002802D06D1C2E
:1003D000F1E7284630BD10B5044604E00B7800F87C
:1003E000013B03B1491C521EF8D2204610BD421CED
:1003F00010F8011B0029FBD1801A704700F0AEBF36
:10040000BFFFDFFFFFFFFFFFFFFFFFFFFFFFFFFF5C
:10041000FFFFFFFFFFFFFFFFFFFFFFFFFFFFFFFFEC
:10042000FFFFFFFFFFFFFFFFFFFFFFFFFFFFFFFFDC
:10043000FFFFFFFFFFFFFFFFFFFFFFFFFFFFFFFFCC
:10044000FFFFFFFFFFFFFFFFFFFFFFFFFFFFFFFFBC
:10045000FFFFFFFFFFFFFFFFFFFFFFFFFFFFFFFFAC
:1004600010B5002200E0521C835C8C5CA34201D1D9
:10047000002BF8D1D8B2E1B2401A10BD30B5044615
:100480000020034600E05B1C934203D2E05CCD5C9D
:10049000401BF8D030BD034611F8012B00F8012BAA
:1004A000002AF9D11846704730B5054600200346AA
:1004B00000E05B1C934205D2EC5CC85C201A01D1C1
:1004C000002CF6D130BD000070B50F4D00B9286882
:1004D000002412E00A4602E09E4203D0521C137828
:1004E000002BF9D1DAB2224305D02BB124B100217F
:1004F00000F8011B04E00446401C0678002EE9D1F8
:100500002860204670BD00000000FE1F00B58DB0C1
:10051000099000920B904FF0FF300A9000200C9051
:1005200004480690044807906A4609A800F044FE73
:100530000DB000BDD5110000F31100002DE9F0470A
:1005400091460F4680460446002614F8015B2DB103
:10055000FFF7E4FE0068405DC007F6D12B2D02D006
:100560002D2D18D0641E4A463946204600F052FE12
:1005700027B13968A14201D1C7F8008071054FF059
:1005800002040BD54042002803DD31F0D7FB0460A4
:10059000A007BDE8F08746F48066E4E70028F8DAB3
:1005A00031F0CCFB04606FF00040F2E72DE9F05F22
:1005B00093460F4680460446002631F0BFFBD0F834
:1005C0000090824614F8015B2DB1FFF7A7FE00688A
:1005D000405DC007F6D12B2D02D02D2D1AD0641E00
:1005E0000021CAF800105A463946204600F012FE93
:1005F000014627B13868A04201D1C7F80080DAF877
:100600000000022809D0CAF80090700505D54842BC
:10061000BDE8F09F46F48066E2E70846F8E700F0A0
:10062000E5BE70B5064631F089FB046805460A222E
:1006300000213046FFF782FF2C6070BD2DE9FE4F90
:10064000804681EA0300C00F0C46009021F0004173
:1006500023F00045B8EB0200A94105D240462146EF
:1006600090461C460B46024623F00040104347D0FC
:10067000270DC7F30A00C3F30A510290401A0190F4
:1006800040286BDAC3F3130040F4801B00989246B5
:1006900020B10023D2EB030A63EB0B0B0198594600
:1006A000C0F14002504600F0DFF906460D465046C4
:1006B0005946019A00F0F7F910EB08006141002457
:1006C00087EA115284EAE7731A4340D0009A62B372
:1006D000019A012A4FEA075215DC001B61EB020167
:1006E0004FF0004202EA0752CDE90042001C41F5FA
:1006F000801132462B4600F0FDFE03B0BDE8F08FBE
:1007000040462146F9E7001B61EB0201001C41F560
:10071000801300185B412018A2F5001747EB030176
:1007200040EAD570B6196D4111E06D084FEA360602
:1007300045EAC0754FEA0752001B61EB0201001C3D
:1007400041F5801149084FEA300000195141324605
:100750002B4603B0BDE8F04F00F0BDBE009801226B
:1007600040000023D0EB020263EBE07300982146C7
:100770004FEAE074B8EB000061EB0401E9E783F0B5
:1007800000435BE781F0004158E72DE9FE4F81EA25
:10079000030404F0004421F0004100944FF0000BEA
:1007A00023F0004350EA01045ED052EA03045BD018
:1007B000C3F30A54C1F30A552C44A4F2F334019450
:1007C000A0FB0254C1F3130141F48011C3F31303DE
:1007D00043F4801301FB024400FB034E840A970A92
:1007E00044EA815447EA8357A4FB076802958D0ABF
:1007F00005FB07854FEA932C04FB0C542705029D4B
:100800004FEA065847EA1637B5EB08056EEB070CBA
:10081000870E920E47EA811742EA8312A7FB020174
:10082000B6EB0B0164EB00042B0D43EA0C335E18AE
:1008300044EB1C50DA465146E7FB0201C5F31304B2
:100840004FEA0B3343EA14534FEA0432019C43EA64
:100850000603A4F10C040294009CCDE900B400F05E
:1008600049FE03B0BDE8F08F00200146F9E72DE90D
:10087000F04D81EA030404F0004B21F000451446DA
:100880004FF0000A23F0004150EA050220D054EA5C
:1008900001021DD0C5F30A570246C5F31303C1F385
:1008A0001300C1F30A5640F4801543F48013A7EBFC
:1008B0000608101BD64608F2FD3873EB050002D37C
:1008C00008F1010801E092185B41B8F1000F03DA6A
:1008D00000200146BDE8F08D00204FF4801106464F
:1008E00084460EE0171B73EB050705D3121B63EB61
:1008F000050306434CEA010C49084FEA3000921800
:100900005B4150EA0107EDD152EA030012D082EABE
:10091000040083EA0501084305D0101BAB4106D251
:100920000122002306E000224FF0004302E06FF0B6
:10093000010253101AEB06004CEB085110EB0A00B1
:1009400041EB0B01BDE8F04D00F0C5BD0EB5C10F88
:1009500080EAE0700844CA07002140F233438DE882
:100960000E000A460B4600F0C5FD03B000BD0EB5F3
:1009700040F2334102910021CDE900110A460B46B5
:1009800000F0B8FD03B000BD0EB540F23342029254
:100990000022CDE90022134600F0ACFD03B000BDFB
:1009A00070B5C1F30A5201F000450024C1F31301F0
:1009B00040F2FF3341F480119A4201DA002070BD09
:1009C00040F233439A42A2F2334203DC524200F037
:1009D0005AF800E090402C43F1D0404270BD00F046
:1009E000004230F000400AD0C10D01F56071C0F343
:1009F000160042EA0151C208400711437047002027
:100A00000146704701F0004330B421F0004150EA44
:100A1000010206D00A0DA2F56072C1F31301002A8B
:100A200002DC30BC00207047440F44EAC104C1001E
:100A3000E01830BC00EBC25000F016BD30B50B46DC
:100A4000014600202022012409E021FA02F59D42FE
:100A500005D303FA02F5491B04FA02F52844151ED2
:100A6000A2F10102F1DC30BD202A04DB203A00FAB9
:100A700002F1002070479140C2F1200320FA03F3F5
:100A8000194390407047202A04DB203A21FA02F0F3
:100A90000021704721FA02F3D040C2F120029140B8
:100AA000084319467047202A06DBCB17203A41FA43
:100AB00002F043EAE07306E041FA02F3D040C2F1EB
:100AC000200291400843194670472DE9FF4F1C460C
:100AD00081B00021D4E9016791464FF0FF358A4685
:100AE0008846A1696D1C02988847216A8346884719
:100AF0000028F6D1BBF1FF3F0CD026F4C066002FD2
:100B00001ADD700615D5BBF12B0F0AD0BBF12D0FE6
:100B10000FD104E04FF0FF3005B0BDE8F08F46F490
:100B20008066A1696D1C029888477F1E8346002F4E
:100B300002DDBBF1300F03D0B9F1000F2AD025E060
:100B4000A1696D1C46F400767F1E02988847834693
:100B5000002F05DDBBF1780F06D0BBF1580F03D095
:100B6000B9F1000F10D011E0B9F1000F02D0B9F1C6
:100B7000100F0BD1A1696D1C26F400767F1E029820
:100B800088478346102000E0082081464FEAE9703C
:100B9000009017E00A20F8E74346AAFB092803FB68
:100BA0000980DDF800C07F1E0AFB0C0112EB0B0A66
:100BB00041EBEB78A16946F4007605F10105029856
:100BC00088478346002F06DD4946584600F022FD3F
:100BD0005FEA000BE0D5E16902988847B00502D4CE
:100BE0006FF0010098E7F00718D1700610D5700576
:100BF000514605D50023D1EB030163EB080200E069
:100C000042462068031D23600068C0E9001205E029
:100C10002068011D21600068C0E900A828467BE724
:100C20002DE9FF5F1D464FF0FF3BD5E90146914698
:100C30005F464FF00008A9697F1C01988847296A20
:100C4000824688470028F6D1BAF1FF3F0CD024F441
:100C5000C064002E19DD600614D5BAF12B0F09D03F
:100C6000BAF12D0F0ED103E0584604B0BDE8F09F55
:100C700044F48064A9697F1C01988847761E8246E7
:100C8000002E02DDBAF1300F03D0B9F1000F26D0EB
:100C900032E0A969761E44F400747F1C01988847ED
:100CA0008246002E05DDBAF1780F06D0BAF1580F52
:100CB00003D0B9F1000F10D01EE0B9F1000F02D03F
:100CC000B9F1100F18D1A969761E24F400747F1CA5
:100CD000019888478246102002E0082000E00A20A0
:100CE000814609E008FB0908A969761E44F40074EE
:100CF0007F1C019888478246002E05DD49465046F4
:100D000000F088FC0028EDDAE96901988847A00521
:100D100002D46FF00100A8E7E00725D1600613D5E3
:100D2000600502D5C8F1000000E0404629680A1DB0
:100D30002A600968220501D5087015E0220701D54F
:100D4000088011E008600FE02868011D2960006834
:100D5000210502D580F8008006E0210702D5A0F821
:100D6000008001E0C0F8008038467EE72DE9FF5F93
:100D7000D2E901A74FF00008916999461446DDF8C1
:100D800038B0464601988847054659EA0B0005D019
:100D900009E0A169761C019888470546216A284622
:100DA00088470028F5D1681C03D05FEACA7005D0D7
:100DB00015E04FF0FF3004B0BDE8F09F2068011D42
:100DC0002160D0F800800AE05FEACA7001D108F81B
:100DD000015BA169761C7F1E019888470546002F9C
:100DE0001ADD681C18D0B9F1000F0DD0E81705EB1B
:100DF000D060421120F01F0059F822102A1A012059
:100E000090400142E0D107E0BBF1000FDCD1216A44
:100E1000284688470028D7D0E16901988847BBF168
:100E2000000F07D1002E05DD5FEACA7002D1002154
:100E300088F80010A068B84203DDBBF1000F03D0B2
:100E400017B16FF00100B6E73046B4E72DE9FF4F68
:100E5000087883B09946FF2805D0491C2D2804D076
:100E60000024002008E000200BE00124F9E700EB5B
:100E7000800003EB4000491C0B78FF2BF7D104B135
:100E8000404200230293147819461D462D2C01D0B0
:100E90002B2C04D1521C2D2C13D000240294AA46D2
:100EA0001478FF2C0FD00A25A3FB057801FB0581E0
:100EB0004FF0000C03FB0C11521CE3194AEB01012B
:100EC000EEE70124EAE7814453EA010002D019F574
:100ED000C87F06DA03980021C0E9001107B0BDE819
:100EE000F08F0025AE4E2F46DFF8B8821846FFF788
:100EF0004BFDCDE90001B9F1000002DAC9F10004AF
:100F000000E004460023A74A1AEB030B42EB045A05
:100F100012E0E00707D02A46334638464146FFF73D
:100F200034FC074688462A46334610461946FFF7E2
:100F30002CFC05460E466410002CEAD1DDE90001C8
:100F4000B9F1000F5A46534606DAFFF790FC3A46CD
:100F50004346FFF78CFC05E0FFF717FC3A46434693
:100F6000FFF713FC029A0AB181F00041039AC2E92B
:100F70000001B3E72DE9FF4F1F468DB0D7E90146C9
:100F80004FF0FF382E2045464FF000090B90B9690D
:100F90006D1C0E988847396A824688470028F6D12A
:100FA000BAF1FF3F0AD024F4D064002E11DDBAF16B
:100FB0002B0F08D0BAF12D0F0BD102E0404611B033
:100FC0008DE744F48064B9696D1C0E9888478246A9
:100FD000761E6946600501D52D2000E02B208DF896
:100FE000000001F1010B0DF1200809E0B9696D1C49
:100FF0000E98884782460F9844F40074761E056068
:10100000002E02DDBAF1300FF0D00B998A453ED1A7
:1010100044F0800406E00F99681CA9F1010944F42A
:1010200000740860B9696D1C761E0E988847824668
:101030003028F0D02BE00B998A4505D1200603D447
:1010400044F08004761E18E0504630F077FF08B375
:101050000DF11302761EAAF1300044F4007493459A
:1010600006D20BF8010B200607D5A9F1010003E019
:10107000200602D409F101008146A00502D50F998E
:10108000681C0860B9696D1C0E9888478246002E5E
:10109000D1DC53E0002E51DDBAF1650F02D0BAF178
:1010A000450F4BD1A00549D5B9696D1C24F4407496
:1010B000761E0E9888478246002E0CDD2B2804D021
:1010C000BAF12D0F07D144F48074B9696D1C0E98E4
:1010D00088478246761EE00501D52D2100E02B21B0
:1010E00008F8011BCDF82C8021E00DF12901761EB6
:1010F00044F4007488450CD2AAF1300010F0FF00CF
:1011000088F8000002D10B99884509D908F1010837
:1011100006E0E00501D5244801E042F20F70814667
:10112000B9696D1C0E98884782460F980560002E9D
:1011300004DD504630F002FF0028D6D1F9690E9840
:101140008847FF208BF8000088F8000000200690F8
:1011500007904B466A4608A906A8FFF777FEA00548
:1011600002D46FF001002AE714F0240F0AD0E00740
:1011700014D1DDE906123868031D3B600068C0E940
:1011800000120BE0DDE90601FFF73CFC0146E00739
:1011900004D13868021D3A600068016028460EE7F5
:1011A000000014400000F03FF1D8FFFF0268114436
:1011B0001378016018467047D160044951610449B1
:1011C000116200211161114600F032BAAD11000028
:1011D00025030000426842B1016811F8013B23B1C8
:1011E000521EC0E90012184670470121C160881ED6
:1011F000704742685AB1C368016843B983688B423B
:1012000005D0491E521CC0E90012002070474FF063
:10121000FF3070472DE9F05F8246007800271546C1
:101220008B460AF10104B946302801D09DB113E084
:1012300014F8010B0127782803D0582801D045B1B4
:101240000AE00DB1102D07D10027102514F8010B6D
:1012500002E0082500E00A250026B0460EE005FB66
:10126000080005FB06F1012701EB10461FFA80F884
:10127000B6F5803F00D3B94614F8010B294600F0BB
:10128000C9F90028EBDABBF1000F05D00FB1641EDD
:1012900000E05446CBF80040B9F1000F06D030F022
:1012A0004DFD02210160C81EBDE8F09F48EA0640DE
:1012B000FAE700000FB40B0010B58AB00FA9009137
:1012C0000E994FF00004234ACC60214CCDE9064230
:1012D00000D004236FF00042CDE901321E4A08928B
:1012E00002466B460020FFF745FE0AB010BC5DF8D1
:1012F00014FBF0B585B007464FF0FF300091CDE903
:1013000001011E46002015460C4604903B466A46E5
:10131000314604A8FFF7CEFF04990346601825B1B3
:1013200009B1024600E022462A6000290ED0002BB7
:1013300002DD0099814209D00094001BCDE901042F
:101340003B466A46314604A8FFF7B4FF05B0F0BD3E
:10135000D5110000F3110000250300002DE9F0472E
:1013600091460E4680460446002514F8017B2FB1B5
:10137000FEF7D4FF0068C05DC007F6D12B2F02D066
:101380002D2F1ED0641E4A463146204600F0E6FA54
:1013900026B13268A24201D1C6F800806A054FF03A
:1013A000020418D50023D0EB030563EB01025D1B9B
:1013B000934109DB0023D0EB030063EB0101BDE89F
:1013C000F08745F48065DEE730F0B8FC046000206B
:1013D0004FF00041F3E7021E71F10002EFDA30F046
:1013E000ADFC04604FF0FF304108E8E72DE9F05F05
:1013F00093460F4680460446002630F09FFCD0F806
:101400000090824614F8015B2DB1FEF787FF00685B
:10141000405DC007F6D12B2D02D02D2D1FD0641EAC
:101420000021CAF800105A463946204600F096FAC4
:10143000024627B13868A04201D1C7F80080DAF827
:10144000000002280ED0CAF8009070050AD50020CE
:101450000346D2EB000063EB0101BDE8F09F46F4C8
:101460008066DDE71046F8E70029A8BF7047401CFA
:10147000490008BF20F00100704710B4B0FA80FCAA
:1014800000FA0CF050EA010404BF10BC704749B1E7
:10149000CCF1200421FA04F411FA0CF118BF012157
:1014A00021430843A3EB0C01CB1D4FEA00614FEA37
:1014B000102042BF002010BC704700EBC350104406
:1014C0000029A4BF10BC7047401C490008BF20F091
:1014D000010010BC704710B5141E73F1000408DA47
:1014E000401C41F1000192185B411A4301D120F0E8
:1014F000010010BD2DE9F04D92469B4611B1B1FAA5
:1015000081F202E0B0FA80F220329046FFF7ACFAA6
:1015100004460F4640EA0A0041EA0B0153465A4688
:10152000084313D0114653EA010019D0C8F1400214
:101530005046FFF7A8FA05460E4650465946424621
:10154000FFF792FA084305D0012004E0204639460F
:10155000BDE8F08D0020054346EAE0762C43374392
:101560000A986305E40AA0EB08000022FD0A44EA99
:1015700047540A3002D500200146E9E70105101959
:101580006941DDE9084500196941BDE8F04DA2E770
:10159000C1F30A52C1F3130140F2FF3341F4801149
:1015A0009A4202DA00200146704740F233439A42E1
:1015B000A2F2334202DC5242FFF765BAFFF754BA97
:1015C00030B5041E71F1000404DB4FF000444042CA
:1015D00064EB0101141E73F1000405DB1C464FF09F
:1015E0000043524263EB0403994208BF904230BD6E
:1015F000064C074D06E0E06840F0010394E8070060
:1016000098471034AC42F6D3FEF73EFEC8AF030055
:10161000E8AF03003A2800D2303820F02002412AF7
:1016200001D3A2F13700884201D34FF0FF30704759
:101630002DE9F34F8BB04FF0000801F10C000C4680
:101640004FF0010B46460DF1080A01906269012135
:1016500001989047051E2DD0252D2CD0216A884752
:10166000C0B16269012101989047216A884700282A
:10167000F7D1411E62690198904700E0761CA1698C
:101680000B988847216A88470028F7D1E1690B98B1
:101690008847DBE7A1690B9888470746A84201D134
:1016A000761CD3E7E1690B9888477F1C02D1B8F11B
:1016B000000F6FD046E1002762693D463946019828
:1016C00090472A2804D16269012101989047012599
:1016D000DFF884926269012101989047A0F13001FE
:1016E0000A290AD24F45E5DC07EB870100EB4107E9
:1016F000303FDFD445F01005ECE7E90601D46FF088
:1017000000476C280AD04C2814D0682815D06A28C5
:101710000DD074281CD07A281AD01DE062690121EE
:10172000019890476C2802D045F0040514E045F07C
:1017300002050DE045F020050AE0626901210198EB
:101740009047682802D045F0080505E045F400659B
:101750006269012101989047C4E9015765283DD08D
:1017600019DC58287AD00CDC452837D004DC252831
:1017700026D0412831D131E046282FD047282CD11E
:101780002CE05B2877D0612828D063287CD064289F
:1017900023D15AE0D0E06F2848D008DC66281DD05D
:1017A00067281BD0692821D06E2816D127E0702821
:1017B00045D0732868D0752847D078280DD14DE0E2
:1017C000A1690B988847054625283FF469AFE16970
:1017D0000B9888476D1C3FF46AAFB3E023466A4616
:1017E0006FF001000B99FFF7C5FB9EE045F040004C
:1017F0006060A80723464FF0000236D43EE0E807B9
:101800007FF447AF2068011D21600068290501D5DC
:1018100006701BE7290701D5068017E7A90703D53E
:10182000F117C0E9006111E706600FE745F04000DD
:101830006060A80723464FF0080216D41EE040F669
:101840000E0125EA0100606016E045F0400060608E
:10185000A80723464FF00A0207D40FE045F04000E6
:101860006060A80708D5234610226FF001000B998D
:10187000FFF72BF959E007E0234610226FF0010033
:101880000B99FFF7CDF950E04FF000094F464B465A
:10189000632802D05B2806D040E0E80601D401208E
:1018A000A06001273AE062690121019890475E2813
:1018B00005D14FF0010962694946019890472169B5
:1018C00039B900210A46534643F82120491C08290A
:1018D000FADBB0B3216969B9C11700EBD1625311CA
:1018E0000AEB830122F01F02821A01200B6890404C
:1018F00003430B6062690121019890475D28E8D19C
:10190000B9F1000F09D00020514651F82020D243F0
:1019100041F82020401C0828F7DB02AB2246009744
:101920006FF001000B99FFF721FA00280CDA401C38
:1019300008D1BBF1000F05D04FF0FF300DB0BDE86E
:10194000F08FFFE74046F9E7E90701D108F1010808
:1019500006444FF0000B79E6CCCCCC0C2DE9F74FC8
:101960004FF00009009C1546CA4614F8010B3028B8
:1019700001D0ADB115E014F8010B4FF00109782842
:1019800003D0582801D04DB10BE00DB1102D08D176
:101990004FF00009102514F8010B02E0082500E0C3
:1019A0000A2500273E46B8464FEAE57B16E0A5FB30
:1019B00007230BFB073105FB080005FB0616030C8C
:1019C000D71846F100061FFA80F8381E4FF00109BB
:1019D00076F5803000D3CA4614F8010B2946FFF78C
:1019E00019FE0028E3DA019838B1B9F1000F01D0EF
:1019F000641E00E0009C01980460BAF1000F08D05A
:101A000030F09CF902210160C81E014603B0BDE818
:101A1000F08F310441EA174148EA0740F6E770B514
:101A20008C1810F8015B15F0070301D110F8013B89
:101A30002A1106D110F8012B03E010F8016B01F810
:101A4000016B5B1EF9D12B0705D40023521E0DD468
:101A500001F8013BFAE710F8013BCB1A921C03E0B6
:101A600013F8015B01F8015B521EF9D5A142D8D3EE
:101A7000002070BD82B00190ADF80210019800689E
:101A8000BDF8021061F308000199086002B07047C8
:101A900080B586B005908DF8131000200390FFE705
:101AA000059801780020029039B1FFE70598007889
:101AB000203818BF01200290FFE70298C00790B1BC
:101AC000FFE7039801909DF8130000900598411CD2
:101AD0000591007800F00CF800990246019800FB8F
:101AE00001200390DCE7BDF80C0006B080BD0000CB
:101AF00081B08DF802009DF8020030280BDBFFE773
:101B00009DF80200392806DCFFE79DF80200303816
:101B10008DF8030024E09DF8020061280BDBFFE74D
:101B20009DF80200662806DCFFE79DF802005738A2
:101B30008DF8030014E09DF8020041280BDBFFE75D
:101B40009DF80200462806DCFFE79DF802003738C2
:101B50008DF8030004E09DF802008DF80300FFE714
:101B60009DF8030001B0704782B001900020009002
:101B7000FFE700980199884204D2FFE700980130FE
:101B80000090F6E702B0704781B08DF8030044F290
:101B90003C00C4F2050000789DF803100840C0B274
:101BA000002818BF012001B07047000080B582B046
:101BB0008DF80700002000909DF80700B0B9FFE7FE
:101BC00044F22600C4F20500007800F00700052862
:101BD00004D1FFE76FF00500009006E044F22A010F
:101BE000C4F2050101200870FFE729E044F200106B
:101BF000C4F205000068C1B20020B0EBD11F07D1CC
:101C0000FFE708204FF4805100F0B6F8009006E09E
:101C100001204FF4805100F0AFF80090FFE70098EA
:101C200068B9FFE744F22A01C4F2050100200870F8
:101C300020204FF4805100F09FF80090FFE7FFE76D
:101C4000009802B080BD000080B586B00590059870
:101C500020B9FFE76FF0020004903FE0059801799A
:101C60000020B0EBD11F06D1FFE741F20020C0F207
:101C70007A00019006E04AF21800C1F6FE70006892
:101C80000190FFE701980599097901F003010131FD
:101C9000B0FBF1F00390039805994979013148436D
:101CA000029044F20011C4F205010868059A127905
:101CB000D20962F3C710086005984068086005986B
:101CC000007828B9FFE70120FFF770FF049004E0D7
:101CD0000020FFF76BFF0490FFE7FFE7049806B0D2
:101CE00080BD000082B0019000200090019820B9D2
:101CF000FFE76FF00200009023E0019900204860A8
:101D00000199087900F07F0008710199087900F0C5
:101D1000FC000871019913204871019AD1790120C2
:101D200060F31F11D171019AD17901F0F0010131F5
:101D3000D171019A917960F31F1191710199087025
:101D4000FFE7009802B0704780B582B00190009123
:101D50000198009904F000FE05F08CF902B080BDF6
:101D600080B582B08DF807009DF8070004F0A8FE4A
:101D700005F080F902B080BD80B584B08DF80F0009
:101D80000291002001906FF007000090FFE701989A
:101D9000029988420ED8FFE79DF80F00FFF7F4FE86
:101DA000012803D1FFE70020009003E001980130F3
:101DB0000190ECE7009804B080BD000080B582B0CF
:101DC0008DF80700002000909DF80700B0B9FFE7EC
:101DD00044F22600C4F20500007800F00700042851
:101DE00004D1FFE76FF00500009006E04CF20041DF
:101DF000C4F2040101200870FFE70AE04CF2004140
:101E0000C4F20401002008704FF40070FFF7ACFE2C
:101E1000FFE7009802B080BD80B582B001900198C4
:101E200020B9FFE76FF0020000901CE001984078B5
:101E30004CF20441C4F204010870019880784CF21D
:101E40001441C4F2040108700198007828B9FFE732
:101E50000120FFF7B3FF009004E00020FFF7AEFF82
:101E60000090FFE7FFE7009802B080BD80B582B028
:101E70008DF80700002000909DF80700A8BBFFE741
:101E800044F22600C4F20500007800F007000328A1
:101E900004D1FFE76FF00500009025E044F2001048
:101EA000C4F205000068C1B20020B0EBD11F13D10D
:101EB000FFE744F22A00C4F20500007820B9FFE7EA
:101EC0006FF00500009006E044F23201C4F2050113
:101ED00001200870FFE706E044F23201C4F2050178
:101EE00001200870FFE7FFE70CE044F23201C4F282
:101EF00005010020087008204FF48051FFF73CFFD7
:101F00000090FFE7009802B080BD000080B582B06D
:101F10000190019820B9FFE76FF00200009020E0E7
:101F20000198C07844F2A201C4F205010870019939
:101F300048788978084340F080004CF67841C4F234
:101F4000040108700198007828B9FFE70120FFF725
:101F50008DFF009004E00020FFF788FF0090FFE76E
:101F6000FFE7009802B080BD82B001900020009091
:101F7000019820B9FFE76FF0020000900BE0019993
:101F8000012008700199002088700199487001991A
:101F90000520C870FFE7009802B0704781B000903C
:101FA000009840600098006001B0704748F600411A
:101FB000C4F20001012008607047000080B582B0C3
:101FC00001906FF002000090019820B3FFE7FFF747
:101FD000EDFF48F60041C4F200010868019A12685A
:101FE00062F30000086001980068012808D1FFE74B
:101FF0000198406848F60441C4F20001086007E017
:102000000198808848F60441C4F200010860FFE7A7
:1020100000200090FFE7009802B080BD10B588B0A6
:10202000DDF82CC0DDF828C00790069105920493D6
:102030004FF0FF30039007984DF60041C4F20101C4
:10204000884218D0FFE7079841F60041C4F2020128
:10205000884210D0FFE707980699059A049BDDF89F
:1020600028C00B9CEE46CEF80440CEF800C000F02D
:1020700015F80390FFE7039868B1FFE70798069902
:10208000059A049BDDF82CC0EE46CEF800C000F0A7
:10209000A5F80390FFE7039808B010BD80B592B093
:1020A000DDF854C0DDF850C0119010910F920E93DE
:1020B0006FF00200039010980C900F980D900E98FE
:1020C000002800F08880FFE71498002800F0838043
:1020D000FFE70C9800287ED0FFE70D9800287AD003
:1020E000FFE70C980D998900B0FBF1F001380590DD
:1020F000059800286ED0FFE70598FF286AD8FFE70B
:102100000598411C4FF0000343F100000D9AA1FB1C
:10211000021C00FB02C0800040EA91708900089117
:10212000099008980999090241EA106100020C9A85
:10213000FEF7C2F88038049004987F2849D8FFE75A
:1021400005980E9908600498149908601598E8B3EA
:10215000FFE708990998000240EA11600902089116
:1021600009900C98049980314FF0000242F100026E
:10217000A0FB011300FB0230069107900698079917
:10218000FEF702FC41EC100B8DED000B089809994D
:10219000FEF7FAFB9DED001B41EC100B51EC110B0F
:1021A00053EC102BFEF763FB41EC100B51EC100BC2
:1021B000FEF728FC00EE100ABFEE001A30EE010A0E
:1021C0008DED0B0A0B9815990860FFE7002003902E
:1021D000FFE7FFE7FFE7039812B080BD80B58EB040
:1021E000DDF840C00D900C910B920A936FF0020045
:1021F00002900C9808900B9809900A98002866D0D5
:10220000FFE70898002862D0FFE7099800285ED011
:10221000FFE7089800EB8000400009998900B0FBB7
:10222000F1F005304CF6CD41CCF6CC41A0FB0101DC
:102230004FF0FF3000EBD10003900398002845D009
:10224000FFE70398FF2841D8FFE703980A99086041
:102250001098C0B3FFE70398411C4FF0000040F115
:102260000000099AA1FB021300FB0230800040EA43
:1022700091708900049105900898FEF778FB41EC75
:10228000100B8DED000B04980599FEF77DFB9DED7D
:10229000001B41EC100B51EC110B53EC102BFEF713
:1022A000E6FA41EC100B51EC100BFEF7ABFB00EE25
:1022B000100ABFEE001A30EE010A8DED070A0798EA
:1022C00010990860FFE700200290FFE7FFE70298FF
:1022D0000EB080BD80B582B0019000910199009A46
:1022E00045F25560C0F203002FF0D0FCFFE7FEE797
:1022F00080B588B08DF81F000020069005906FF023
:102300000200049001F056FC039001F04DFC029095
:10231000029850B3FFE7FFE70599039A0020914226
:10232000019006D8FFE70698B0FA80F040090190C6
:10233000FFE70198C00748B1FFE70298006800F086
:1023400080000690059801300590E5E7069838B1C1
:10235000FFE79DF81F00029948600020049003E009
:102360006FF007000490FFE7FFE7049808B080BD16
:1023700083B002904AF21C00C1F6FE70006844F27D
:102380002001C4F205010968C1F30261C84042F2AC
:102390000F71084441F25971CDF2B711A0FB011041
:1023A000400B0090FFE70298411E029150B1FFE7F9
:1023B00000980190FFE70198411E019108B1FFE7E5
:1023C000F9E7F0E703B0704783B002904AF21C00CF
:1023D000C1F6FE70006844F22001C4F205010968EC
:1023E000C1F30261C84049F27F61C0F2980108441C
:1023F0004CF66B21C6F65F31A0FB0110800D0090FA
:10240000FFE70298411E029150B1FFE7009801904A
:10241000FFE70198411E019108B1FFE7F9E7F0E7F6
:1024200003B0704746F2F441C1F6FE71086801300E
:102430000860704746F20051C1F6FE71086801302D
:102440000860704781B000900098B0B1FFE740F29B
:102450005040C4F2010000680099086040F2544006
:10246000C4F2010000680099486040F25840C4F28C
:102470000100006800998860FFE701B07047000024
:1024800040F20041C4F201010020086070470000E2
:1024900040F20041C4F2010140F22310086043F20F
:1024A000102008607047000083B001900020009069
:1024B00040F21841C4F201010868019A62F3030076
:1024C0000860FFE7019840F21841C4F20101096871
:1024D00001F00F01884220D0FFE700980130009002
:1024E00000984AF21C01C1F6FE71096844F220020C
:1024F000C4F205021268C2F30262D14041F259727D
:10250000CDF2B712A1FB0221B0EB913F04D9FFE756
:102510006FF00700029003E0D4E700200290FFE78D
:10252000029803B07047000081B00090009A41F219
:102530005801C4F2050108681043086001B07047F3
:1025400081B0009041F25400C4F205000068009987
:102550000840002818BF012001B0704786B00590E0
:10256000049100200290049820B9FFE76FF0020068
:10257000029037E000208DF80F00FFE79DF80F0074
:102580000F282ED8FFE705989DF80F10C840C00708
:1025900000B3FFE7049908684A6889681043084354
:1025A00001900498C168019808430190049800695B
:1025B00041F20001C4F2050108609DF80F1041F2DC
:1025C0001000C4F2050000EB810000900198009912
:1025D0000860FFE7FFE79DF80F0001308DF80F005E
:1025E000CCE7FFE7029806B07047000080B50420F2
:1025F000FFF7A6FF012821D1FFE70020042100F00A
:10260000F5FB01280BD1FFE70AF096FB45F2E0113C
:10261000C1F6FE7141F25A02002088540AE00AF025
:1026200091FB45F2E011C1F6FE7141F25A02012020
:102630008854FFE70420FFF777FFFFE780BD000025
:1026400082B0019000200090019820B9FFE76FF060
:10265000020000900BE00199002008600199486099
:10266000019988600199C86001990861FFE70098A5
:1026700002B0704782B001908DF803109DF80300FE
:10268000012809D1FFE7019A48F20001C4F20401D0
:1026900008689043086008E0019A48F20001C4F21B
:1026A0000401086810430860FFE702B070470000AB
:1026B00082B001908DF803109DF80300012809D124
:1026C000FFE7019A48F20401C4F20401086890434C
:1026D000086008E0019A48F20401C4F204010868A5
:1026E00010430860FFE702B07047000082B001901D
:1026F0008DF803109DF80300012809D1FFE7019A26
:1027000048F20801C4F2040108689043086008E038
:10271000019A48F20801C4F20401086810430860F5
:10272000FFE702B07047000082B001908DF80310FF
:102730009DF80300012809D1FFE7019A48F20C0136
:10274000C4F2040108689043086008E0019A48F266
:102750000C01C4F20401086810430860FFE702B0EE
:102760007047000080B58AB00890079107980899D3
:10277000401A01300390FFE70398002876D0FFE766
:10278000BDF82000C8B9FFE7039840F2D841C1F670
:10279000FE7109688969C1F5803188420DD9FFE76A
:1027A000BDF8220004900498000402F0DBFE0690BD
:1027B000089800F5803007903DE0BDF82000400407
:1027C000C8B9FFE7039840F2D841C1F6FE71096825
:1027D0008969C1F5004188420DD9FFE70898C00B0F
:1027E00004900498C00302F09DFE0690089800F53E
:1027F000004007901EE0089840F2D841C1F6FE71F3
:1028000001910A68926952421040029002980A6847
:102810009269B0FBF2F00590059809688969484310
:1028200002F060FE019906900298096889690844DF
:102830000790FFE7FFE7069820B1FFE74FF0FF3072
:10284000099016E003980799089A891A884203D2DA
:10285000FFE70020039006E0079A08990398891A79
:1028600008440390FFE70798089085E70020099047
:10287000FFE709980AB080BD40F2D840C1F6FE706B
:102880000068704784B002901C20009000200190E6
:10289000FFE70198009988421EDAFFE7019800EBF4
:1028A000C00143F2D470C0F2030000EB8100006964
:1028B000029988420BD1FFE7019800EBC00143F277
:1028C000D470C0F2030000EB8100039007E0FFE743
:1028D000019801300190DCE700200390FFE70398A6
:1028E00004B0704780B584B002900298FFF7CAFF29
:1028F0000190019848B1FFE7019840F2D841C1F634
:10290000FE7108600020039003E04FF0FF30039059
:10291000FFE7039804B080BD80B58CB00A900991A0
:10292000089200200090099807900A9803900A984E
:10293000000A06900A98089908440138000A059090
:1029400006980599884207D1FFE70A980999089ADD
:1029500002F088FF0B9071E040F2D840C1F6FE70A3
:102960000068008C0A9A012101EB122148430138CA
:10297000019001980A99401A013004900A98079929
:10298000049A02F06FFF0090009820B1FFE74FF02B
:10299000FF300B9052E0049907980844079004997F
:1029A000039808440390069801300290FFE70298CC
:1029B000059988423ED8FFE702980599884213D1CD
:1029C000FFE70A9808990844C0B20490049820B917
:1029D000FFE74FF480700490FFE703980799049A8B
:1029E00002F040FF0B9029E00398079940F2D8428B
:1029F000C1F6FE721268128C02F034FF009000984B
:102A000020B1FFE74FF0FF300B9017E040F2D840C5
:102A1000C1F6FE7001680A8C07991144079100689D
:102A2000018C039808440390FFE7FFE70298013008
:102A30000290BCE7FFE700980B90FFE70B980CB003
:102A400080BD000080B582B00190019800780DF043
:102A500067F902B080BD000080B58AB00990089186
:102A60000792069306984CF6CD41CCF6CC41A0FBDC
:102A70000110C008059000200290019003A82BF0DF
:102A80001BFDFFE709980078072105AA29F092FBB2
:102A9000099801684FF4427000EB411006F06AF8A3
:102AA000172825D1FFE7099800780DF017FF0128B6
:102AB0001EDBFFE7099800780899029B1944079AE2
:102AC000D21A92B21EF01AFC01900198012805DB7F
:102AD000FFE7019902980844029008E00198B0F1DC
:102AE000FF3F03DCFFE70198029017E0FFE7FFE7F5
:102AF000FFE70299079A00209142009009DAFFE768
:102B000003A805A92EF01CFBB0FA80F04009009044
:102B1000FFE70098C0070028B4D1FFE702980AB089
:102B200080BD000080B58AB0099008910792069395
:102B300006984CF6CD41CCF6CC41A0FB0110C00864
:102B4000059000200290019003A82BF0B5FCFFE750
:102B500009980078072105AA29F02CFB099801683B
:102B60004FF4427000EB411006F004F817281ED114
:102B7000FFE7099800780899029B1944079AD21A2E
:102B800092B227F04FFB01900198012805DBFFE787
:102B9000019902980844029008E00198B0F1FF3FC3
:102BA00003DCFFE70198029017E0FFE7FFE7FFE78C
:102BB0000299079A00209142009009DAFFE703A8E2
:102BC00005A92EF0BDFAB0FA80F040090090FFE7A9
:102BD0000098C0070028BBD1FFE702980AB080BD6B
:102BE00084B08DF80F00ADF80C108DF80B2000208C
:102BF0008DF80300FFE79DF803000F282ED8FFE7AC
:102C0000BDF80C009DF80310C840C007F8B1FFE7FD
:102C10009DF80F0080019DF8031000EB810043F642
:102C20000041C4F20501084401909DF80B00012801
:102C300006D1FFE70199088840F40040088005E0CC
:102C4000019908886FF3DF300880FFE7FFE7FFE7AF
:102C50009DF8030001308DF80300CCE704B0704705
:102C600084B08DF80F00ADF80C108DF80B2000200B
:102C70008DF80300FFE79DF803000F282ED8FFE72B
:102C8000BDF80C009DF80310C840C007F8B1FFE77D
:102C90009DF80F0080019DF8031000EB810043F6C2
:102CA0000041C4F20501084401909DF80B00012881
:102CB00006D1FFE70199088840F48050088005E0BC
:102CC0000199088820F480500880FFE7FFE7FFE7BC
:102CD0009DF8030001308DF80300CCE704B0704785
:102CE00087B08DF81B00ADF81810059200200290F7
:102CF000059820B9FFE76FF00200029063E0002022
:102D00008DF81300FFE79DF813000F285AD8FFE74E
:102D1000BDF818009DF81310C840C00700284AD01D
:102D2000FFE70599009108884A8810438A88104374
:102D3000CA8810434A8910438A891043CA891043BC
:102D400009890843ADF8100045F27720ADF80E0070
:102D50000598418ABDF810000843ADF81000BDF891
:102D60000E0040F40040ADF80E000598018ABDF851
:102D700010000843ADF81000BDF80E0040F480606C
:102D8000ADF80E009DF81B0080019DF8131000EBBC
:102D9000810043F60041C4F2050108440190019806
:102DA0000088BDF80E209043BDF810101140084473
:102DB00001990880FFE7FFE79DF8130001308DF8C7
:102DC0001300A0E7FFE7029807B0704743F6FC3115
:102DD000C4F205014FF425400880704743F6FC31EA
:102DE000C4F205014AF201500880704781B08DF8A5
:102DF0000300ADF800109DF80300010143F6000048
:102E0000C4F20500405ABDF80010084080B2002806
:102E100018BF012001B0704781B08DF803009DF804
:102E20000300010143F60000C4F20500405A01B05E
:102E30007047000082B08DF80700ADF804109DF8CF
:102E4000071043F60A00C4F2050000EB01100090E1
:102E5000BDF80420009908881043088002B070472C
:102E600081B08DF803008DF802109DF80200012852
:102E70000CD1FFE79DF8030000F01F0243F6F43188
:102E8000C4F205010888104308800DE09DF8031086
:102E90004FF6E07060EA010243F6F431C4F2050136
:102EA000088810400880FFE701B0704783B08DF8B4
:102EB0000B00ADF80810ADF8062000208DF80500D5
:102EC000FFE79DF805000F2821D8FFE7BDF80800AF
:102ED0009DF80510C840C00790B1FFE79DF80B00B2
:102EE00080019DF8051000EB810043F60241C4F219
:102EF000050108440090BDF8060000990880FFE72E
:102F0000FFE79DF8050001308DF80500D9E703B013
:102F10007047000082B08DF80700ADF804109DF8EE
:102F2000071043F60800C4F2050000EB0110009002
:102F3000BDF80420009908881043088002B070474B
:102F400081B0ADF8020043F6F831C4F205010888FB
:102F500020F4E040BDF8022002F4E0421044088072
:102F600001B0704783B0029000200190029820B910
:102F7000FFE76FF00200019016E002990020009038
:102F80000880029948800299C88002994882029973
:102F9000088102994881029988810299C881029921
:102FA000888002990882FFE7019803B0704700000B
:102FB00082B08DF80700ADF804109DF8071043F6B5
:102FC0000C00C4F2050000EB01100090BDF80420D5
:102FD000009908881043088002B0704780B588B017
:102FE000069005910020019003900598FDF7FFF9E8
:102FF0000146019802910490FFE7049802998842E3
:1030000018DAFFE705980499405C2C2804D1FFE703
:10301000039801300390FFE703980699884204D192
:10302000FFE704980130079007E0FFE704980130BC
:103030000490E2E700200790FFE7079808B080BD02
:1030400083B0029000200090029820B9FFE76FF053
:103050000200009060E002990888400900EB4002FD
:10306000202000EB4200B1F9021088420DD8FFE7A2
:1030700002990888400900EB4002252000EB42003D
:10308000B1F9021088420AD2FFE70298B0F90200B3
:10309000202804D3FFE76FF0020000903BE0029885
:1030A000B0F9021041F25C00C4F2050000EB8100AF
:1030B0000190019800686FF35F2040F2FF11884291
:1030C0000FD1FFE7029800880199086002994868CB
:1030D000B1F9022049F23C51C1F6FE7141F82200DB
:1030E00018E002980088019909686FF35F2188420F
:1030F0000BD1FFE702994868B1F9022049F23C512F
:10310000C1F6FE7141F8220003E06FF0010000906B
:10311000FFE7FFE7FFE7FFE7009803B07047000015
:1031200080B549F23C50C1F6FE700068804780BD12
:1031300080B549F23C50C1F6FE704068804780BDC2
:1031400080B549F23C50C1F6FE708068804780BD72
:1031500080B549F23C50C1F6FE70C068804780BD22
:1031600080B549F23C50C1F6FE700069804780BDD1
:1031700080B549F23C50C1F6FE704069804780BD81
:1031800080B549F23C50C1F6FE708069804780BD31
:1031900080B549F23C50C1F6FE70C069804780BDE1
:1031A00080B549F23C50C1F6FE70006A804780BD90
:1031B00080B549F23C50C1F6FE70406A804780BD40
:1031C00080B549F23C50C1F6FE70806A804780BDF0
:1031D00080B549F23C50C1F6FE70C06A804780BDA0
:1031E00080B549F23C50C1F6FE70006B804780BD4F
:1031F00080B549F23C50C1F6FE70406B804780BDFF
:1032000080B549F23C50C1F6FE70806B804780BDAE
:1032100080B549F23C50C1F6FE70C06B804780BD5E
:1032200080B549F23C50C1F6FE70006C804780BD0D
:1032300080B549F23C50C1F6FE70406C804780BDBD
:1032400080B549F23C50C1F6FE70806C804780BD6D
:1032500080B549F23C50C1F6FE70C06C804780BD1D
:1032600080B549F23C50C1F6FE70006D804780BDCC
:1032700080B549F23C50C1F6FE70406D804780BD7C
:1032800080B549F23C50C1F6FE70806D804780BD2C
:1032900080B549F23C50C1F6FE70C06D804780BDDC
:1032A00080B549F23C50C1F6FE70006E804780BD8B
:1032B00080B549F23C50C1F6FE70406E804780BD3B
:1032C00080B549F23C50C1F6FE70806E804780BDEB
:1032D00080B549F23C50C1F6FE70C06E804780BD9B
:1032E00080B549F23C50C1F6FE70006F804780BD4A
:1032F00080B549F23C50C1F6FE70406F804780BDFA
:1033000080B549F23C50C1F6FE70806F804780BDA9
:1033100080B549F23C50C1F6FE70C06F804780BD59
:1033200080B549F23C50C1F6FE70D0F8800080476D
:1033300080BD000080B549F23C50C1F6FE70D0F867
:103340008400804780BD000080B549F23C50C1F642
:10335000FE70D0F88800804780BD000080B549F23B
:103360003C50C1F6FE70D0F88C00804780BD000054
:1033700080B549F23C50C1F6FE70D0F8900080470D
:1033800080BD000080B549F23C50C1F6FE70D0F817
:103390009400804780BD000080B549F23C50C1F6E2
:1033A000FE70D0F89800804780BD000080B549F2DB
:1033B0003C50C1F6FE70D0F89C00804780BD0000F4
:1033C00080B549F23C50C1F6FE70D0F8A0008047AD
:1033D00080BD000080B549F23C50C1F6FE70D0F8C7
:1033E000A400804780BD000080B549F23C50C1F682
:1033F000FE70D0F8A800804780BD000080B549F27B
:103400003C50C1F6FE70D0F8AC00804780BD000093
:1034100080B549F23C50C1F6FE70D0F8B00080474C
:1034200080BD000080B549F23C50C1F6FE70D0F876
:10343000B400804780BD000080B549F23C50C1F621
:10344000FE70D0F8B800804780BD000080B549F21A
:103450003C50C1F6FE70D0F8BC00804780BD000033
:1034600080B549F23C50C1F6FE70D0F8C0008047EC
:1034700080BD000080B549F23C50C1F6FE70D0F826
:10348000C400804780BD000080B549F23C50C1F6C1
:10349000FE70D0F8C800804780BD000080B549F2BA
:1034A0003C50C1F6FE70D0F8CC00804780BD0000D3
:1034B00080B549F23C50C1F6FE70D0F8D00080478C
:1034C00080BD000080B549F23C50C1F6FE70D0F8D6
:1034D000D400804780BD000080B549F23C50C1F661
:1034E000FE70D0F8D800804780BD000080B549F25A
:1034F0003C50C1F6FE70D0F8DC00804780BD000073
:1035000080B549F23C50C1F6FE70D0F8E00080472B
:1035100080BD000080B549F23C50C1F6FE70D0F885
:10352000E400804780BD000080B549F23C50C1F600
:10353000FE70D0F8E800804780BD000080B549F2F9
:103540003C50C1F6FE70D0F8EC00804780BD000012
:1035500080B549F23C50C1F6FE70D0F8F0008047CB
:1035600080BD000080B549F23C50C1F6FE70D0F835
:10357000F400804780BD000080B549F23C50C1F6A0
:10358000FE70D0F8F800804780BD000080B549F299
:103590003C50C1F6FE70D0F8FC00804780BD0000B2
:1035A00080B549F23C50C1F6FE70D0F8000180476A
:1035B00080BD000080B549F23C50C1F6FE70D0F8E5
:1035C0000401804780BD000080B549F23C50C1F63F
:1035D000FE70D0F80801804780BD000080B549F238
:1035E0003C50C1F6FE70D0F80C01804780BD000051
:1035F00080B549F23C50C1F6FE70D0F8100180470A
:1036000080BD000080B549F23C50C1F6FE70D0F894
:103610001401804780BD000080B549F23C50C1F6DE
:10362000FE70D0F81801804780BD000080B549F2D7
:103630003C50C1F6FE70D0F81C01804780BD0000F0
:1036400080B549F23C50C1F6FE70D0F820018047A9
:1036500080BD000080B549F23C50C1F6FE70D0F844
:103660002401804780BD000080B549F23C50C1F67E
:10367000FE70D0F82801804780BD000080B549F277
:103680003C50C1F6FE70D0F82C01804780BD000090
:1036900080B549F23C50C1F6FE70D0F83001804749
:1036A00080BD000080B549F23C50C1F6FE70D0F8F4
:1036B0003401804780BD000080B549F23C50C1F61E
:1036C000FE70D0F83801804780BD000080B549F217
:1036D0003C50C1F6FE70D0F83C01804780BD000030
:1036E00080B549F23C50C1F6FE70D0F840018047E9
:1036F00080BD000080B549F23C50C1F6FE70D0F8A4
:103700004401804780BD000080B549F23C50C1F6BD
:10371000FE70D0F84801804780BD000080B549F2B6
:103720003C50C1F6FE70D0F84C01804780BD0000CF
:1037300080B549F23C50C1F6FE70D0F85001804788
:1037400080BD000080B549F23C50C1F6FE70D0F853
:103750005401804780BD000080B549F23C50C1F65D
:10376000FE70D0F85801804780BD000080B549F256
:103770003C50C1F6FE70D0F85C01804780BD00006F
:1037800080B549F23C50C1F6FE70D0F86001804728
:1037900080BD000080B549F23C50C1F6FE70D0F803
:1037A0006401804780BD000080B549F23C50C1F6FD
:1037B000FE70D0F86801804780BD000080B549F2F6
:1037C0003C50C1F6FE70D0F86C01804780BD00000F
:1037D00080B549F23C50C1F6FE70D0F870018047C8
:1037E00080BD000080B549F23C50C1F6FE70D0F8B3
:1037F0007401804780BD000080B549F23C50C1F69D
:10380000FE70D0F87801804780BD000080B549F295
:103810003C50C1F6FE70D0F87C01804780BD0000AE
:1038200080B549F23C50C1F6FE70D0F88001804767
:1038300080BD000080B549F23C50C1F6FE70D0F862
:103840008401804780BD000080B549F23C50C1F63C
:10385000FE70D0F88801804780BD000080B549F235
:103860003C50C1F6FE70D0F88C01804780BD00004E
:1038700080B549F23C50C1F6FE70D0F89001804707
:1038800080BD000080B549F23C50C1F6FE70D0F812
:103890009401804780BD000080B549F23C50C1F6DC
:1038A000FE70D0F89801804780BD000080B549F2D5
:1038B0003C50C1F6FE70D0F89C01804780BD0000EE
:1038C00080B549F23C50C1F6FE70D0F8A0018047A7
:1038D00080BD000080B549F23C50C1F6FE70D0F8C2
:1038E000A401804780BD000080B549F23C50C1F67C
:1038F000FE70D0F8A801804780BD000080B549F275
:103900003C50C1F6FE70D0F8AC01804780BD00008D
:1039100080B549F23C50C1F6FE70D0F8B001804746
:1039200080BD000080B549F23C50C1F6FE70D0F871
:10393000B401804780BD000080B549F23C50C1F61B
:10394000FE70D0F8B801804780BD000080B549F214
:103950003C50C1F6FE70D0F8BC01804780BD00002D
:1039600080B549F23C50C1F6FE70D0F8C0018047E6
:1039700080BD000080B549F23C50C1F6FE70D0F821
:10398000C401804780BD000080B549F23C50C1F6BB
:10399000FE70D0F8C801804780BD000080B549F2B4
:1039A0003C50C1F6FE70D0F8CC01804780BD0000CD
:1039B00080B549F23C50C1F6FE70D0F8D001804786
:1039C00080BD000080B549F23C50C1F6FE70D0F8D1
:1039D000D401804780BD000080B549F23C50C1F65B
:1039E000FE70D0F8D801804780BD000080B549F254
:1039F0003C50C1F6FE70D0F8DC01804780BD00006D
:103A000080B549F23C50C1F6FE70D0F8E001804725
:103A100080BD000080B549F23C50C1F6FE70D0F880
:103A2000E401804780BD000080B549F23C50C1F6FA
:103A3000FE70D0F8E801804780BD000080B549F2F3
:103A40003C50C1F6FE70D0F8EC01804780BD00000C
:103A500080B549F23C50C1F6FE70D0F8F0018047C5
:103A600080BD000080B549F23C50C1F6FE70D0F830
:103A7000F401804780BD000080B549F23C50C1F69A
:103A8000FE70D0F8F801804780BD000080B549F293
:103A90003C50C1F6FE70D0F8FC01804780BD0000AC
:103AA00080B582B004208021FFF7A0F9012804D15D
:103AB000FFE700208DF8070003E001208DF80700E4
:103AC000FFE79DF8070002B080BD000080B582B01E
:103AD00001200421FFF78AF9012804D1FFE7002023
:103AE0008DF8070003E001208DF80700FFE79DF83F
:103AF000070002B080BD000080B582B00220202106
:103B0000FFF774F9012804D1FFE700208DF80700C2
:103B100003E001208DF80700FFE79DF8070002B0E1
:103B200080BD000080B582B001200221FFF75EF960
:103B3000012804D1FFE700208DF8070003E00120F1
:103B40008DF80700FFE79DF8070002B080BD000078
:103B500080B582B002200421FFF748F9012804D182
:103B6000FFE700208DF8070003E001208DF8070033
:103B7000FFE79DF8070002B080BD000080B582B06D
:103B800001210846FFF732F9012804D1FFE70020A0
:103B90008DF8070003E001208DF80700FFE79DF88E
:103BA000070002B080BD000049F23C70C1F6FE7013
:103BB0000068704749F24070C1F6FE7000687047B7
:103BC00080B582B001909DF80400C00718B1FFE7EE
:103BD000FEF75EFCFFE79DF804008007002803D590
:103BE000FFE701F0ADFBFFE79DF804004007002868
:103BF00003D5FFE7FFF7F2F8FFE79DF80400C006E2
:103C0000002805D5FFE74AF2085001F0B3FBFFE7B3
:103C10009DF804004006002805D5FFE74AF203504E
:103C200001F0A8FBFFE79DF804000006002803D57B
:103C3000FFE702F0B9FDFFE702B080BD80B582B0BA
:103C400001909DF80400C00718B1FFE7FEF718FCCB
:103C5000FFE79DF804008007002803D5FFE701F087
:103C600065FBFFE79DF804004007002803D5FFE748
:103C7000FFF7ACF8FFE79DF80400C006002805D563
:103C8000FFE74AF2085001F065FBFFE79DF80400EA
:103C90004006002805D5FFE74AF2035001F05AFB21
:103CA000FFE79DF804000006002803D5FFE702F0B7
:103CB0006FFDFFE702B080BD80B586B0059004912E
:103CC00003926FF002000290039860B3FFE7039A3B
:103CD00005980499904702900298F8B9FFE7059873
:103CE00000F024F8049818B9FFE70020019011E0D3
:103CF0004AF21C00C1F6FE70006844F22001C4F2D2
:103D000005010968C1F30261C8400499B0FBF1F0F4
:103D10000190FFE7019800F013F803E04FF0FF3047
:103D20000290FFE7FFE7029806B080BD81B00090E7
:103D3000009849F23C71C1F6FE71086001B070470D
:103D400081B00090009849F24071C1F6FE710860A0
:103D500001B0704782B00190002000900090FFE712
:103D6000009804280BDCFFE70198009900EBC101E3
:103D700000208862FFE7009801300090F0E702B071
:103D80007047000080B586B0DDF828C0DDF824C09B
:103D9000DDF820C0059004910392029304980599E0
:103DA000486500200190FFE7019804280BDCFFE73D
:103DB0000598019900EBC10100208862FFE7019896
:103DC00001300190F0E70398059948600298059941
:103DD00008610898059988600998059948610A98CA
:103DE0000599C860059900200862059948620599FF
:103DF00008770599086505990120086005985830ED
:103E000003F096FA0598643003F092FA0598703042
:103E100001F0CEF906B080BD80B582B00190019965
:103E200000200877019908620198406A20B1FFE7F5
:103E30000198FFF78FFFFFE702B080BD80B584B027
:103E4000039002910398029901AA00F003F804B0CC
:103E500080BD000080B5A0B01F901E911D924FF054
:103E6000FF30199042F22471C0F2030103A85822D6
:103E7000FCF761FA002002901F98703001F0A2F95F
:103E80001F98006A08B1FFE755E01AA8019003F0F7
:103E90004FFA01981F99496803F036FA1E9818B92D
:103EA000FFE703A81E90FFE71E98008B1F9988610B
:103EB0001E98807E1F9948621F9901F164008969EC
:103EC00003F014FA1F98816800691E9A00F0FEFB47
:103ED0000290002801DCFFE72DE01F9802991AAA42
:103EE00026F0CCFA199008B1FFE724E01F980221D0
:103EF0001AAA2BF017F8022818D1FFE71D99002005
:103F000008701D9948701D99481C1F9AD368526902
:103F100000F064F8012804D1FFE71D98007819909B
:103F200003E04FF0FF301990FFE703E04FF0FF3060
:103F30001990FFE7FFE7199838B9FFE71F990120AB
:103F400008621F9900200877FFE71F98703001F082
:103F500045F9199820B080BD80B58AB0DDF830C031
:103F6000099008910792069343F2BC70C0F20300D7
:103F7000006805900698049000200390029004A821
:103F800019F0E6FC8DF814009DF81400C0F3C00091
:103F9000089908709DF814000009099908700498A0
:103FA00001A900F0CBF9014602910498084404905D
:103FB000049801990844039003980499401A012831
:103FC00001DCFFE707E004A819F0D2FC079908809C
:103FD00001200290FFE702980AB080BD80B58CB046
:103FE0000B900A910992089343F2AC70C0F203005F
:103FF000006807900998069000200590049043F20D
:10400000B070C0F203000068029006A819F0A0FC8E
:104010008DF81C009DF81C100220B0EB111F01D080
:10402000FFE728E0069803A900F088F9014604910B
:104030000698084406900698039908440590059848
:104040000699401A012801DCFFE714E006A8019058
:1040500019F07EFC014601988DF808109DF80810B3
:1040600001F001010B9A117019F072FC0A990870A5
:1040700001200490FFE704980CB080BD80B58AB0A1
:10408000DDF840C0DDF83CC0DDF838C0DDF834C0F4
:10409000DDF830C0099008910792069343F2B8709A
:1040A000C0F20300006805900F9804900020039070
:1040B0000290019004A819F04BFC8DF814009DF8B3
:1040C00014100320B0EB111F01D0FFE743E09DF86F
:1040D0001400C0F3C000099908709DF81400C0F3E3
:1040E0004100089908609DF8140000F0010007994C
:1040F0000870049801A900F021F901460291049882
:104100000844049004980199084403900C98039A79
:1041100004A919F03FFC38B1FFE703980499401A4D
:10412000B0F1FF3F01DCFFE715E0089800680128C7
:1041300006DBFFE704A819F01BFC06990880FFE7DF
:1041400003980499401A0E99086004980D99086024
:1041500001200290FFE702980AB080BD80B58AB0C6
:10416000DDF834C0DDF830C009900891079206935D
:1041700043F2CC70C0F20300006805900C980490E4
:1041800000200390029004A819F0E2FB8DF81400BF
:104190009DF814100920B0EB111F01D0FFE73CE09F
:1041A000049801A900F0CAF8014602910498084455
:1041B0000490049801990844039003980499401AC4
:1041C000012801DCFFE728E004A819F0D1FB0999D8
:1041D0000880079900200860FFE704980399884247
:1041E00018D2FFE7079800680899884204DDFFE7C6
:1041F0004FF0FF30029010E004A819F0A9FB0699D7
:10420000DDF81CC0DCF80020531CCCF8003041F86D
:104210002200E2E701200290FFE702980AB080BD89
:1042200080B586B005900491039200208DF80B00B4
:104230008DF80A000190059A049B0398694608606E
:104240000DF10B000DF10A01FFF786FE01909DF8BC
:104250000B000B2803D1FFE701200190FFE7019835
:1042600006B080BD80B588B007904FF0FF30069053
:10427000002002900798703000F0A4FF03A801907E
:1042800003F056F801980799496803F03DF807983C
:104290008168006900F07EFB02900298012807DB2C
:1042A000FFE70798029903AA26F0E8F80690FFE7CF
:1042B0000798FFF7B1FD0798703000F08FFF069860
:1042C00008B080BD80B586B00590049101200290B1
:1042D0000020019004990860FFE74FF0FF30009044
:1042E000019801300190052804DBFFE74FF0FF3013
:1042F00000901FE0059A0DF10F00012190470090FA
:104300000098012801D0FFE714E09DF80F0000F0AD
:104310007F00029A04990B6800FB02300860029843
:10432000C0010290FFE79DF80F0000060028D4D4DA
:10433000FFE7FFE7019806B080BD000080B582B0BE
:1043400001900091019842F65061C1F6FE7108603B
:1043500000994CF60D60C0F20000FFF7B3FF02B009
:1043600080BD000084B00390029100200190FFE71F
:104370000298C11700EB516101F08001401A8DF8DD
:1043800003000298C11700EB5160C011029002981F
:10439000012807DBFFE79DF8030040F080008DF85F
:1043A0000300FFE79DF803000399019A531C019352
:1043B0008854FFE702980028DADCFFE7019804B090
:1043C0007047000080B586B00590049100200390EE
:1043D00002900598006848B1FFE7059800680190D1
:1043E00005980068FCF703F8039006E005988068DC
:1043F0000190059840680390FFE70498FBF7F7FFEA
:1044000002900399029A0020914200900AD1FFE79E
:1044100001980499039AFCF747F8B0FA80F0400934
:104420000090FFE7009800F0010006B080BD00009A
:1044300081B0009000980130009000987F2804DC43
:10444000FFE70098013000901AE00098B0F5804F27
:1044500004DAFFE700980230009010E000984FF671
:10446000FE71C0F21F01884204DCFFE700980330B0
:10447000009003E0009804300090FFE7FFE7FFE7BB
:10448000009801B0704700002DE9F04196B01590FA
:10449000149113924FF0FF30129000200E900D9067
:1044A0000C9014990C910B901598703000F08AFEC6
:1044B0001598006A08B9FFE799E00FA8089002F084
:1044C00037FF08981599496802F01EFF1398007885
:1044D000012805D0FFE713980078022806D1FFE7EE
:1044E00015980CF0E5F913998880FFE71598816815
:1044F0000069DDF84CC09CF800309CF80120BCF845
:1045000004E0DCF80870DCF80C800C9C0D9D0E9E1D
:10451000EC46CCF81880CCF81470CCF81060CCF8CD
:104520000C50CCF80840CCF804E0CCF80020002275
:1045300000F048FA0B900B98002801DCFFE756E0EA
:1045400015980B990FAA25F099FF129008B1FFE773
:104550004DE013980078012821D1FFE71598042138
:104560000FAA2AF0DFFC042814D1FFE71599C868C8
:104570004B69694608600AA80DF129010DF12A026C
:10458000FFF7EAFC012804D0FFE74FF0FF3012905C
:10459000FFE703E04FF0FF301290FFE726E01398AB
:1045A0000078022821D1FFE7159807210FAA2AF0E9
:1045B000B9FC072814D1FFE71599C8684B6969460B
:1045C000086009A80DF125010DF12602FFF7C4FCD2
:1045D000012804D0FFE74FF0FF301290FFE703E01F
:1045E0004FF0FF301290FFE7FFE7FFE7FFE7129879
:1045F000013020B9FFE71598FFF70EFCFFE715988B
:10460000703000F0EBFD129816B0BDE8F0810000AC
:1046100080B588B084460A98CDF81CC006918DF804
:1046200017208DF81630ADF8140043F2C470C0F2B4
:1046300003000068049000200390079802900698F9
:10464000032804DCFFE76FF0010003903BE09DF8D6
:1046500017109DF8100000F00F0040EA01108DF8CF
:1046600010009DF816109DF8100001F0010100F0F7
:10467000F70040EAC1008DF810009DF817000638D9
:10468000B0FA80F041099DF8100000F0F90040EA0E
:1046900041008DF810009DF8101002A801902BF039
:1046A00061F902980221FFF75DFE02460198029926
:1046B00011440291BDF814102BF064F90298079987
:1046C000401A0390FFE7039808B080BD80B58CB016
:1046D0000B900A9109920B98089043F2A470C0F2D3
:1046E00003000068079043F2A870C0F2030000685E
:1046F0000690002005904FF0FF300490099800F0DC
:10470000E7F80590FFF794FE0A99884204DDFFE779
:104710006FF001000490D8E000208DF81C009DF897
:104720001C00012161F31F108DF81C009DF81C1066
:1047300008A82BF017F908980599FFF713FE014612
:104740000898084408900998007A04280DD1FFE7DA
:104750004AF20141C0F2030108A803902BF0E8F8E7
:10476000039804212BF0FEF80CE04AF20641C0F257
:10477000030108A802902BF0DBF8029803212BF02C
:10478000F1F8FFE700208DF818000998817E9DF868
:10479000180001F0010100F0FD0040EA41008DF831
:1047A00018000998C17E002918BF01219DF8180042
:1047B00000F0FB0040EA81008DF818009DF8180019
:1047C0008008C007D8B1FFE7099890F83D109DF820
:1047D000180001F0030100F0E70040EAC1008DF885
:1047E0001800099890F83C109DF8180001F001019C
:1047F00000F0DF0040EA41108DF81800FFE709984B
:10480000006C20B9FFE70998806C38B1FFE79DF88C
:10481000180040F080008DF81800FFE70998C06C80
:1048200020B9FFE70998406D38B1FFE79DF81800FF
:1048300040F040008DF81800FFE79DF8181008A818
:1048400001902BF08FF801980999098B2BF09AF8B9
:104850000198099BD9681A695B692BF0ADF8099832
:10486000C07E80B1FFE70998416A826AC36A08A8DE
:1048700000902BF0A1F80098099B196B5A6B9B6B69
:104880002BF09AF8FFE79DF818100020B0EBD11F2D
:1048900008D0FFE70998016C426C836C08A82BF0E4
:1048A0008BF8FFE79DF818008009C00740B1FFE7CB
:1048B0000998C16C026D436D08A82BF07DF8FFE7E5
:1048C00008980B99401A0490FFE704980CB080BD3B
:1048D00080B584B00390002002900398007A0328EA
:1048E00003D1FFE70C20029008E00398007A042827
:1048F00003D1FFE70A200290FFE7FFE7039AD068A1
:104900001169526900F03EFC02990844023002909D
:104910000398C07EA8B1FFE7039A506A916AD26AF1
:1049200000F030FC0190039A106B516B926B00F019
:1049300029FC014601980844029908440430029079
:10494000FFE70398006C20B9FFE70398806C58B12B
:10495000FFE7039A106C516C926C00F013FC029903
:10496000084402300290FFE70398C06C20B9FFE7CB
:104970000398406D58B1FFE7039AD06C116D526DEA
:1049800000F000FC0299084402300290FFE7029810
:1049900004B080BD80B582B001900091019800996B
:1049A0000E2200F00FFA02B080BD000080B582B088
:1049B00001900091019800990C2200F003FA02B0D6
:1049C00080BD0000F0B58FB08C468646189E179DBE
:1049D000169C1A981998159814990E960D950C9482
:1049E000CDF82CE0CDF828C08DF8272008938DF85D
:1049F0001F10ADF81C000B98069043F2C070C0F277
:104A00000300006805900020049003900898DDF8EA
:104A100068C00C990D9A0E9BEE46CEF800C000F0CF
:104A200065F80490FFF704FD0A99884204DDFFE76A
:104A30006FF00100039055E09DF81400032161F32D
:104A40001F108DF814009DF827109DF8140001F038
:104A5000010100F0F70040EAC1008DF814009DF854
:104A600020109DF8140001F0030100F0F90040EA65
:104A700041008DF814009DF81F109DF8140001F0FE
:104A8000010100F0FE0008448DF814009DF8141098
:104A900006A802902AF066FF06980499FFF762FCC8
:104AA000024602980699114406910C990D9A0E9BA4
:104AB0002AF082FF0898012806DBFFE7BDF81C10EA
:104AC00006A82AF05FFFFFE7069819991A9AFBF7E4
:104AD00032FC1A9906980844069006980B99401AD9
:104AE0000390FFE703980FB0F0BD000080B586B0DB
:104AF000DDF820C0059304920391029000200190FC
:104B000003980499059A00F03DFB0899084401991F
:104B10000844023001900298012804DBFFE7019865
:104B200002300190FFE7019806B080BD80B58CB0DF
:104B3000DDF840C0DDF83CC0DDF838C00B900A91CC
:104B40008DF82720ADF824300B98089043F2C870F8
:104B5000C0F20300006807900020069005900490C2
:104B60000E980F9900F066F80690FFF761FC0A991D
:104B7000884204DDFFE76FF00100059057E0002058
:104B800003908DF81C009DF81C00082161F31F1094
:104B90008DF81C009DF827109DF81C0001F0010104
:104BA00000F0F70040EAC1008DF81C009DF81C00E1
:104BB00000F0F90002308DF81C009DF81C1008A8C8
:104BC00002902AF0CFFE08980699FFF7CBFB024629
:104BD0000298089911440891BDF824102AF0D2FED9
:104BE00003980490FFE704980E9988421ADAFFE7C9
:104BF0000F99049800EB400201EB820051F822105B
:104C00004268836808A801902AF0D6FE019810999E
:104C1000049A11F822102AF0A5FEFFE7049801304B
:104C20000490E0E708980B99401A0590FFE7059873
:104C30000CB080BD80B584B003900291022000903A
:104C400000200190FFE701980399884215DAFFE7F9
:104C50000298019901EB410100EB810250F821001B
:104C60005168926800F08EFA009908440330009071
:104C7000FFE7019801300190E5E7009804B080BD9E
:104C800080B58AB0DDF834C0DDF830C009900891F5
:104C90008DF81F20ADF81C300998069043F2D070B3
:104CA000C0F2030000680590002004904FF0FF312F
:104CB000039102900C980D9900F05EF80490FFF7B4
:104CC000B7FB0899884204DDFFE76FF0010003900D
:104CD0004FE0002001908DF814009DF814000A2187
:104CE00061F31F108DF814009DF81F109DF814003B
:104CF00001F0010100F0F70040EAC1008DF8140056
:104D00009DF8140000F0F90002308DF814009DF8B1
:104D1000141006A800902AF025FE06980499FFF7C3
:104D200021FB02460098069911440691BDF81C101B
:104D30002AF028FE01980290FFE702980C99884219
:104D400012DAFFE70D99029800EB400201EB8200B6
:104D500051F822104268836806A82AF02DFEFFE76A
:104D6000029801300290E8E706980999401A0390EA
:104D7000FFE703980AB080BD80B584B0039002912C
:104D80000220009000200190FFE7019803998842DB
:104D900015DAFFE70298019901EB410100EB81026E
:104DA00050F821005168926800F0ECF9009908442D
:104DB00002300090FFE7019801300190E5E700988C
:104DC00004B080BD80B588B0079006918DF817209B
:104DD00043F2B470C0F20300006804904FF0FF305B
:104DE0000390079802900698012804DCFFE76FF013
:104DF000010003901FE0002001908DF810009DF845
:104E000017109DF8100000F00F0040EA01108DF817
:104E100010009DF8101002A82AF0A4FD0199029834
:104E2000FFF7A0FA014602980844029002980799F9
:104E3000401A0390FFE7039808B080BD80B586B0A4
:104E40000590049103924FF0FF30029001900020F2
:104E50000190FFE70198042828DCFFE705980199F5
:104E600000EBC100806AE0B1FFE70598019900EB13
:104E7000C100806A0499FBF7F3FA90B9FFE7039841
:104E800060B9FFE70598019900EBC1010020886235
:104E90000599019A01EBC201C862FFE70020029068
:104EA00004E0FFE7019801300190D3E7039868B36D
:104EB000FFE702980130B8B9FFE700200190FFE753
:104EC000019804280FDCFFE70598019900EBC10069
:104ED000806A18B9FFE70020029004E0FFE701981C
:104EE00001300190ECE7FFE7019804280DDCFFE7B3
:104EF00004980599019A01EBC2018862039805990B
:104F0000019A01EBC201C862FFE7FFE7029806B011
:104F100080BD000080B586B0059004918DF80F200B
:104F20000293059804999DF80F20029BEE460DF11F
:104F3000040CCEF800C000F003F806B080BD0000FD
:104F400080B594B0DDF858C0139012918DF84720C9
:104F500010934FF0FF300F9000200B900A900990B3
:104F60000890129808901398703000F02BF913985D
:104F7000006A08B9FFE75FE00CA8039002F0D8F9D7
:104F800003981399496802F0BFF913988168049156
:104F9000016905910BF08CFC049902460598EC46DA
:104FA0000DF14703CCF8083008ABCCF804300123EE
:104FB000CCF8003093B20022FFF7B8FD0B900B98AD
:104FC000002801DCFFE737E013980B990CAA25F0C5
:104FD00055FA0F9008B1FFE72EE0139809210CAAAB
:104FE00029F0A0FF092822D1FFE700200790169999
:104FF0000870169B1398C268406969464A60086049
:105000000DF11A00012107AAFFF7A8F801280DD118
:10501000FFE716980078802807D0FFE713981299C9
:10502000109AFFF70BFF0F90FFE7FFE703E04FF049
:10503000FF300F90FFE7FFE70F98013020B9FFE73F
:105040001398FEF7E9FEFFE71398703000F0C6F8FA
:105050000F9814B080BD000080B590B00F900E91F5
:105060004FF0FF300D9000200990089007900E99A6
:10507000079106900F98703000F0A4F80F98006A1E
:1050800008B9FFE749E00AA8029002F051F9029836
:105090000F99496802F038F90F9881680391016906
:1050A00004910BF005FC039902460498EC4607AB0B
:1050B000CCF804300123CCF8003093B20022FFF783
:1050C000DFFD0690002801DCFFE726E00F98069937
:1050D0000AAA25F0D3F90D9008B1FFE71DE00F985B
:1050E0000B210AAA29F01EFF0B2811D1FFE70F9808
:1050F000C26841690DF11600FFF792F8012806D148
:10510000FFE70F980E990022FFF798FEFFE703E0F4
:105110004FF0FF300D90FFE7FFE70D98013020B909
:10512000FFE70F98FEF778FEFFE70F98703000F06A
:1051300055F80D9810B080BD80B588B007900691E5
:105140000020059002A8019002F0F2F8019806995B
:1051500002F0DAF8FFE7079802A90AF033FAB0F193
:10516000FF3F04DCFFE74FF0FF30059006E0FFE76C
:1051700002A802F0E7F80028EDD0FFE7059808B094
:1051800080BD000080B584B00392029101900020A0
:105190000090019828B1FFE70198FBF728F90090EB
:1051A00002E002980090FFE7009804B080BD000084
:1051B00080B582B0019001202BF084FA019908603B
:1051C00002B080BD80B582B00190019800684FF0B8
:1051D000FF312BF0ADFE02B080BD000080B582B083
:1051E000019001980068002319461A462BF050FBE5
:1051F00002B080BD80B586B004900391029243F264
:105200003900ADF8060004980078BDF806200121A9
:10521000002327F0F7F804990968884203D0FFE7D4
:10522000002005900FE0049800780399BDF808204D
:1052300009F0A0FC012803D0FFE70020059002E060
:1052400001200590FFE7059806B080BD82B001906F
:105250000091009801990860019942F65920C0F226
:1052600000004860019942F62530C0F200008860D5
:10527000019942F64520C0F20000C86002B07047B4
:1052800083B00290019100920198029948600098C1
:105290000299086003B0704780B582B00190009118
:1052A000019860B9FFE745F6DF50C0F2030045F60C
:1052B0000762C0F20302562104F07AFEFFE700986D
:1052C00060B9FFE745F6DF50C0F2030045F6DA5259
:1052D000C0F20302572104F06BFEFFE7019800685B
:1052E0000099086001980099486000980199096840
:1052F000486000980199086002B080BD80B582B016
:105300000190019860B9FFE745F6DF50C0F2030055
:1053100045F60762C0F203022A2104F049FEFFE7C6
:10532000019800600198406002B080BD48F2100111
:10533000C4F204010020CAF2A550086070470000C2
:1053400048F21001C4F204010120CAF2A55008601D
:105350007047000081B0ADF80200BDF8022044F2B1
:10536000FE31C4F205010888904340F425400880CE
:1053700001B0704781B0ADF80200BDF8022044F2E0
:10538000FE31C4F2050108881043088001B070475F
:105390004CF23041C4F20401A520087070470000AF
:1053A000EFF30980BFF36F8F154B1A681EF0100FD3
:1053B00008BF20ED108A20E9F04F10602DE90900A8
:1053C0004FF0200080F31188BFF34F8FBFF36F8F32
:1053D00029F0B8F94FF0000080F31188BDE809000A
:1053E00019680868B0E8F04F1EF0100F08BFB0EC65
:1053F000108A80F30988BFF36F8F704700BF00BF2A
:10540000C8A2FE1F4FF01C40006800F0070149F2DF
:105410004470C1F6FE7001600068052807D8FFE7F8
:105420004FF01C41086820F007000860FFE74FF0CC
:105430001C41086840F02000086070474FF01C4194
:10544000086820F02000086049F24470C1F6FE7040
:10545000006805280BD8FFE749F24470C1F6FE70DA
:1054600002684FF01C41086810430860FFE770476E
:1054700080B584B003906FF00700009003984AF263
:105480001C01C1F6FE71096844F22002C4F2050253
:105490001268C2F30262D14041F25972CDF2B712E2
:1054A000A1FB0221890B48430190FFF7ABFF0520C8
:1054B00000F0F8FAFFE70198411E019168B1FFE79B
:1054C00000F0C4FA8DF80B009DF80B00C00718B966
:1054D000FFE70020009000E0EDE7FFF7AFFF009846
:1054E00004B080BD80B586B0059068460023039364
:1054F0000360062019461A4600F008FA059804A928
:10550000029100F091F90299039B68460360202004
:10551000032200F0FBF94FF4FA70FFF7A9FF06B081
:1055200080BD000080B586B00590684600230393D7
:105530000360062019461A4600F0E8F9059804A908
:10554000029100F071F90299039B684603605220B2
:10555000032200F0DBF94FF4FA70FFF789FF06B081
:1055600080BD000080B586B0059068460023039397
:105570000360062019461A4600F0C8F9059804A9E8
:10558000029100F051F90299039B68460360D8200C
:10559000032200F0BBF94FF4FA70FFF769FF06B081
:1055A00080BD000080B584B0039000200290FFE72A
:1055B0000298032809D8FFE7029A01A9FF2088541E
:1055C000FFE7029801300290F2E7039B694608204A
:1055D00008604B2001A9042200F0E0F804B080BD6F
:1055E00080B584B0002202926946032008609F20A3
:1055F00001AB114600F0D2F89DF804000290029829
:10560000000202909DF8051002980843029002984B
:10561000000202909DF8061002980843029002983A
:1056200004B080BD80B59CB00EA80090FDF79AFC38
:10563000009A20200B90ADF83E0002200A908021B5
:105640000191FDF74DFB009A0A9840210291FDF768
:1056500047FB009A032006904FF480710391FDF7F9
:105660003FFB009A06984FF400710491FDF738FB58
:10567000009A06984FF480610591FDF731FB009A7E
:1056800006984FF400610791FDF72AFB01990A98EB
:1056900012220892FDF70AFC0299089A0A98FDF76F
:1056A00005FC03990698089AFDF700FC04990698F2
:1056B000089AFDF7FBFB05990698089AFDF7F6FB9B
:1056C00006980799089AFDF7F1FB08200990012137
:1056D0000C91FCF7EDFF13A80D9000F0BDF9DDF87B
:1056E00024C00A9B0B9A0C990D984FF4E02ECDF82C
:1056F0004CE04FF0050ECDF858E0CDF854C04FF413
:10570000407CCDF85CC01893199210221A921B911C
:1057100000F042F91CB080BD80B586B005900491C0
:105720000392002002900190059800F11840059026
:10573000049850B1FFE7039838B1FFE70598039943
:105740000844B0F11C4F04D3FFE76FF00200019052
:1057500021E02020012100F0B1F905980090FFE739
:1057600002980399884215D2FFE70098411C0091E6
:1057700000780499029A531C029388540298039962
:105780000139884205D1FFE7FF20002100F096F99A
:10579000FFE7E5E7FFE7019806B080BD80B586B07A
:1057A000DDF820C08DF81700049103920293FFF7F3
:1057B00029FE9DF8170000F075F90498B0B1FFE7D5
:1057C000039898B1FFE700200190FFE70198039943
:1057D00088420AD2FFE704980199405C00F062F920
:1057E000FFE7019801300190F0E7FFE70298B0B1C0
:1057F000FFE7089898B1FFE700200190FFE70198C4
:10580000089988420AD2FFE700F020F90299019A2C
:105810008854FFE7019801300190F0E7FFE7FFF7B8
:105820000DFE06B080BD000084B003900291002000
:105830008DF8030002200190FFE703980199C90049
:10584000C84002999DF80320531C8DF803308854FA
:10585000FFE70198411E01910028EED1FFE704B057
:105860007047000080B58AB0099008910792002027
:1058700004900390089818B1FFE7079820B9FFE754
:105880006FF0020003903EE0FFE70798D0B3FFE718
:105890000798B0F5807F04D3FFE74FF4807006903F
:1058A00002E007980690FFE76846002303600620A1
:1058B00019461A4600F02AF8099805A90291FFF73F
:1058C000B3FF02990898049A831806986A461060F4
:1058D0000220032200F01AF84FF4FA70FFF7C8FD17
:1058E0000390039808B1FFE70CE006990998084473
:1058F0000990069904980844049006990798401A5C
:105900000790C2E7FFE703980AB080BD80B586B074
:10591000DDF820C08DF81700049103920293FFF781
:1059200071FD9DF8170000F0BDF80498B0B1FFE7D5
:10593000039898B1FFE700200190FFE701980399D1
:1059400088420AD2FFE704980199405C00F0AAF867
:10595000FFE7019801300190F0E7FFE70298B0B14E
:10596000FFE7089898B1FFE700200190FFE7019852
:10597000089988420AD2FFE702980199405C00F03A
:1059800091F8FFE7019801300190F0E7FFE7FFF79A
:1059900055FD06B080BD000010B583B00290002018
:1059A00001900090029820B9FFE76FF0020001908B
:1059B00049E002988078C00720B9FFE74FF4004023
:1059C0000090FFE74FF01C4108684FF66072CFF679
:1059D000C0721040029B1A68D3F804E0D3F808C0E4
:1059E000DB6842EA0E0242EA0C021A439F23C0F22D
:1059F0003F031A40104408600298C169006A40EAF7
:105A000011200421C9F6004108600821C9F60041AF
:105A1000086848F637739843DDF808C0DCF81020B2
:105A2000DCF81440DCF818E0224342EA0E029CF84D
:105A30001CC042EA0C02DDF800C042EA0C021A4027
:105A400010440860FFE7019803B010BD1020C9F6AC
:105A500000400068C0B2704782B001900020009002
:105A6000019820B9FFE76FF00200009016E001995D
:105A70004FF48030086001990020486001998860E7
:105A80000199C86001990861019A02215161019947
:105A900088610199C86101990862FFE7009802B026
:105AA0007047000081B08DF803009DF803001021BD
:105AB000C9F60041086001B07047000081B08DF860
:105AC00003008DF802109DF803001821C9F600416B
:105AD00008609DF80200012807D1FFE74FF01C4144
